{
  "contractName": "FundMe",
  "abi": [
    {
      "inputs": [
        {
          "internalType": "address",
          "name": "_priceFeed",
          "type": "address"
        }
      ],
      "stateMutability": "nonpayable",
      "type": "constructor"
    },
    {
      "inputs": [
        {
          "internalType": "address",
          "name": "",
          "type": "address"
        }
      ],
      "name": "addressToAmountFunded",
      "outputs": [
        {
          "internalType": "uint256",
          "name": "",
          "type": "uint256"
        }
      ],
      "stateMutability": "view",
      "type": "function"
    },
    {
      "inputs": [
        {
          "internalType": "uint256",
          "name": "",
          "type": "uint256"
        }
      ],
      "name": "funders",
      "outputs": [
        {
          "internalType": "address",
          "name": "",
          "type": "address"
        }
      ],
      "stateMutability": "view",
      "type": "function"
    },
    {
      "inputs": [],
      "name": "owner",
      "outputs": [
        {
          "internalType": "address",
          "name": "",
          "type": "address"
        }
      ],
      "stateMutability": "view",
      "type": "function"
    },
    {
      "inputs": [],
      "name": "priceFeed",
      "outputs": [
        {
          "internalType": "contract AggregatorV3Interface",
          "name": "",
          "type": "address"
        }
      ],
      "stateMutability": "view",
      "type": "function"
    },
    {
      "inputs": [],
      "name": "fund",
      "outputs": [],
      "stateMutability": "payable",
      "type": "function"
    },
    {
      "inputs": [],
      "name": "getVersion",
      "outputs": [
        {
          "internalType": "uint256",
          "name": "",
          "type": "uint256"
        }
      ],
      "stateMutability": "view",
      "type": "function"
    },
    {
      "inputs": [],
      "name": "getEntranceFee",
      "outputs": [
        {
          "internalType": "uint256",
          "name": "",
          "type": "uint256"
        }
      ],
      "stateMutability": "view",
      "type": "function"
    },
    {
      "inputs": [],
      "name": "getPrice",
      "outputs": [
        {
          "internalType": "uint256",
          "name": "",
          "type": "uint256"
        }
      ],
      "stateMutability": "view",
      "type": "function"
    },
    {
      "inputs": [
        {
          "internalType": "uint256",
          "name": "ethAmount",
          "type": "uint256"
        }
      ],
      "name": "getConversionRate",
      "outputs": [
        {
          "internalType": "uint256",
          "name": "",
          "type": "uint256"
        }
      ],
      "stateMutability": "view",
      "type": "function"
    },
    {
      "inputs": [],
      "name": "withDraw",
      "outputs": [],
      "stateMutability": "payable",
      "type": "function"
    }
  ],
  "bytecode": "0x608060405234801561001057600080fd5b50604051610a4a380380610a4a8339818101604052602081101561003357600080fd5b810190808051906020019092919050505080600360006101000a81548173ffffffffffffffffffffffffffffffffffffffff021916908373ffffffffffffffffffffffffffffffffffffffff16021790555033600160006101000a81548173ffffffffffffffffffffffffffffffffffffffff021916908373ffffffffffffffffffffffffffffffffffffffff16021790555050610974806100d66000396000f3fe6080604052600436106100915760003560e01c8063741bef1a11610059578063741bef1a146101aa5780638da5cb5b146101eb57806398d5fdca1461022c578063b60d428814610257578063dc0d3dff1461026157610091565b806309bc33a7146100965780630d8e6e2c146100c15780630fdb1c10146100ec5780633e47d6f3146100f65780636e5b6b281461015b575b600080fd5b3480156100a257600080fd5b506100ab6102c6565b6040518082815260200191505060405180910390f35b3480156100cd57600080fd5b506100d66102fa565b6040518082815260200191505060405180910390f35b6100f46103a4565b005b34801561010257600080fd5b506101456004803603602081101561011957600080fd5b81019080803573ffffffffffffffffffffffffffffffffffffffff1690602001909291905050506105ad565b6040518082815260200191505060405180910390f35b34801561016757600080fd5b506101946004803603602081101561017e57600080fd5b81019080803590602001909291905050506105c5565b6040518082815260200191505060405180910390f35b3480156101b657600080fd5b506101bf6105f4565b604051808273ffffffffffffffffffffffffffffffffffffffff16815260200191505060405180910390f35b3480156101f757600080fd5b5061020061061a565b604051808273ffffffffffffffffffffffffffffffffffffffff16815260200191505060405180910390f35b34801561023857600080fd5b50610241610640565b6040518082815260200191505060405180910390f35b61025f610722565b005b34801561026d57600080fd5b5061029a6004803603602081101561028457600080fd5b8101908080359060200190929190505050610858565b604051808273ffffffffffffffffffffffffffffffffffffffff16815260200191505060405180910390f35b6000806032905060006102d7610640565b90506000670de0b6b3a7640000905081818402816102f157fe5b04935050505090565b6000600360009054906101000a900473ffffffffffffffffffffffffffffffffffffffff1673ffffffffffffffffffffffffffffffffffffffff166354fd4d506040518163ffffffff1660e01b815260040160206040518083038186803b15801561036457600080fd5b505afa158015610378573d6000803e3d6000fd5b505050506040513d602081101561038e57600080fd5b8101908080519060200190929190505050905090565b600160009054906101000a900473ffffffffffffffffffffffffffffffffffffffff1673ffffffffffffffffffffffffffffffffffffffff163373ffffffffffffffffffffffffffffffffffffffff1614610467576040517f08c379a00000000000000000000000000000000000000000000000000000000081526004018080602001828103825260158152602001807f596f7520617265206e6f7420746865206f776e6572000000000000000000000081525060200191505060405180910390fd5b60005b6002805490508110156105055760006002828154811061048657fe5b9060005260206000200160009054906101000a900473ffffffffffffffffffffffffffffffffffffffff16905060008060008373ffffffffffffffffffffffffffffffffffffffff1673ffffffffffffffffffffffffffffffffffffffff1681526020019081526020016000208190555050808060010191505061046a565b50600067ffffffffffffffff8111801561051e57600080fd5b5060405190808252806020026020018201604052801561054d5781602001602082028036833780820191505090505b5060029080519060200190610563929190610897565b503373ffffffffffffffffffffffffffffffffffffffff166108fc479081150290604051600060405180830381858888f193505050501580156105aa573d6000803e3d6000fd5b50565b60006020528060005260406000206000915090505481565b6000806105d0610640565b90506000670de0b6b3a7640000848302816105e757fe5b0490508092505050919050565b600360009054906101000a900473ffffffffffffffffffffffffffffffffffffffff1681565b600160009054906101000a900473ffffffffffffffffffffffffffffffffffffffff1681565b600080600360009054906101000a900473ffffffffffffffffffffffffffffffffffffffff1673ffffffffffffffffffffffffffffffffffffffff1663feaf968c6040518163ffffffff1660e01b815260040160a06040518083038186803b1580156106ab57600080fd5b505afa1580156106bf573d6000803e3d6000fd5b505050506040513d60a08110156106d557600080fd5b8101908080519060200190929190805190602001909291908051906020019092919080519060200190929190805190602001909291905050505050509150506402540be400810291505090565b60006032905080610732346105c5565b10156107a6576040517f08c379a000000000000000000000000000000000000000000000000000000000815260040180806020018281038252601b8152602001807f596f75206e65656420746f207370656e64206d6f72652045544821000000000081525060200191505060405180910390fd5b346000803373ffffffffffffffffffffffffffffffffffffffff1673ffffffffffffffffffffffffffffffffffffffff168152602001908152602001600020600082825401925050819055506002339080600181540180825580915050600190039060005260206000200160009091909190916101000a81548173ffffffffffffffffffffffffffffffffffffffff021916908373ffffffffffffffffffffffffffffffffffffffff16021790555050565b6002818154811061086857600080fd5b906000526020600020016000915054906101000a900473ffffffffffffffffffffffffffffffffffffffff1681565b828054828255906000526020600020908101928215610910579160200282015b8281111561090f5782518260006101000a81548173ffffffffffffffffffffffffffffffffffffffff021916908373ffffffffffffffffffffffffffffffffffffffff160217905550916020019190600101906108b7565b5b50905061091d9190610921565b5090565b5b8082111561093a576000816000905550600101610922565b509056fea26469706673582212209e26e23bfbf2ddcaf3527b5bc9b24e9305282f0674cef3a1c52313c53b52636a64736f6c63430007060033",
  "immutableReferences": {},
  "source": "// SPDX-License-Identifier: MIT\r\n\r\npragma solidity ^0.7.0;\r\n\r\nimport \"@chainlink/contracts/src/v0.7/interfaces/AggregatorV3Interface.sol\";\r\n\r\ncontract FundMe {\r\n    mapping(address => uint256) public addressToAmountFunded;\r\n    address public owner;\r\n    address[] public funders;\r\n    AggregatorV3Interface public priceFeed;\r\n\r\n    constructor(address _priceFeed) {\r\n        priceFeed = AggregatorV3Interface(_priceFeed);\r\n        owner = msg.sender;\r\n    }\r\n\r\n    function fund() public payable {\r\n        uint256 mimimumUSD = 50;\r\n        require(\r\n            getConversionRate(msg.value) >= mimimumUSD,\r\n            \"You need to spend more ETH!\"\r\n        );\r\n        addressToAmountFunded[msg.sender] += msg.value;\r\n        funders.push(msg.sender);\r\n    }\r\n\r\n    function getVersion() public view returns (uint256) {\r\n        return priceFeed.version();\r\n    }\r\n\r\n    function getEntranceFee() public view returns (uint256) {\r\n        // mimimumUSD\r\n        uint256 mimimumUSD = 50;\r\n        uint256 price = getPrice();\r\n        uint256 precision = 1 * 10**18;\r\n        return (mimimumUSD * precision) / price;\r\n    }\r\n\r\n    function getPrice() public view returns (uint256) {\r\n        (, int256 answer, , , ) = priceFeed.latestRoundData();\r\n        return uint256(answer * 10000000000);\r\n    }\r\n\r\n    // 1000000000\r\n    function getConversionRate(uint256 ethAmount)\r\n        public\r\n        view\r\n        returns (uint256)\r\n    {\r\n        uint256 ethPrice = getPrice();\r\n        uint256 ethAmountInUsd = (ethPrice * ethAmount) / 1000000000000000000;\r\n        return ethAmountInUsd;\r\n    }\r\n\r\n    modifier onlyOwner() {\r\n        require(msg.sender == owner, \"You are not the owner\");\r\n        _;\r\n    }\r\n\r\n    function withDraw() public payable onlyOwner {\r\n        // reset all balance to zero when admin withdraw balance of the contract\r\n        // update database first\r\n        for (\r\n            uint256 funderIndex = 0;\r\n            funderIndex < funders.length;\r\n            funderIndex++\r\n        ) {\r\n            address funder = funders[funderIndex];\r\n            addressToAmountFunded[funder] = 0;\r\n        }\r\n        funders = new address[](0);\r\n\r\n        // then update blockchain\r\n        payable(msg.sender).transfer(address(this).balance);\r\n    }\r\n}\r\n",
  "sourcePath": "C:\\Users\\Acer\\OneDrive\\Desktop\\fundMe\\contracts\\FundMe.sol",
  "compiler": {
    "name": "solc",
    "version": "0.7.6+commit.7338295f.Emscripten.clang"
  },
  "schemaVersion": "3.4.5",
  "updatedAt": "2022-02-28T09:25:28.682Z",
  "devdoc": {
    "kind": "dev",
    "methods": {},
    "version": 1
  },
  "userdoc": {
    "kind": "user",
    "methods": {},
    "version": 1
  }
}