{
  "contractName": "Lottery",
  "abi": [
    {
      "inputs": [
        {
          "internalType": "address",
          "name": "_priceFeedAddress",
          "type": "address"
        },
        {
          "internalType": "address",
          "name": "_vrfCoordinator",
          "type": "address"
        },
        {
          "internalType": "address",
          "name": "_link",
          "type": "address"
        },
        {
          "internalType": "uint256",
          "name": "_fee",
          "type": "uint256"
        },
        {
          "internalType": "bytes32",
          "name": "_keyhash",
          "type": "bytes32"
        }
      ],
      "stateMutability": "nonpayable",
      "type": "constructor"
    },
    {
      "anonymous": false,
      "inputs": [
        {
          "indexed": true,
          "internalType": "address",
          "name": "previousOwner",
          "type": "address"
        },
        {
          "indexed": true,
          "internalType": "address",
          "name": "newOwner",
          "type": "address"
        }
      ],
      "name": "OwnershipTransferred",
      "type": "event"
    },
    {
      "anonymous": false,
      "inputs": [
        {
          "indexed": false,
          "internalType": "bytes32",
          "name": "requestId",
          "type": "bytes32"
        }
      ],
      "name": "RequestRandomness",
      "type": "event"
    },
    {
      "inputs": [],
      "name": "fee",
      "outputs": [
        {
          "internalType": "uint256",
          "name": "",
          "type": "uint256"
        }
      ],
      "stateMutability": "view",
      "type": "function"
    },
    {
      "inputs": [],
      "name": "keyhash",
      "outputs": [
        {
          "internalType": "bytes32",
          "name": "",
          "type": "bytes32"
        }
      ],
      "stateMutability": "view",
      "type": "function"
    },
    {
      "inputs": [],
      "name": "lottery_state",
      "outputs": [
        {
          "internalType": "enum Lottery.LOTTERY_STATE",
          "name": "",
          "type": "uint8"
        }
      ],
      "stateMutability": "view",
      "type": "function"
    },
    {
      "inputs": [],
      "name": "owner",
      "outputs": [
        {
          "internalType": "address",
          "name": "",
          "type": "address"
        }
      ],
      "stateMutability": "view",
      "type": "function"
    },
    {
      "inputs": [
        {
          "internalType": "uint256",
          "name": "",
          "type": "uint256"
        }
      ],
      "name": "players",
      "outputs": [
        {
          "internalType": "address payable",
          "name": "",
          "type": "address"
        }
      ],
      "stateMutability": "view",
      "type": "function"
    },
    {
      "inputs": [],
      "name": "randomness",
      "outputs": [
        {
          "internalType": "uint256",
          "name": "",
          "type": "uint256"
        }
      ],
      "stateMutability": "view",
      "type": "function"
    },
    {
      "inputs": [
        {
          "internalType": "bytes32",
          "name": "requestId",
          "type": "bytes32"
        },
        {
          "internalType": "uint256",
          "name": "randomness",
          "type": "uint256"
        }
      ],
      "name": "rawFulfillRandomness",
      "outputs": [],
      "stateMutability": "nonpayable",
      "type": "function"
    },
    {
      "inputs": [],
      "name": "reccentWinners",
      "outputs": [
        {
          "internalType": "address payable",
          "name": "",
          "type": "address"
        }
      ],
      "stateMutability": "view",
      "type": "function"
    },
    {
      "inputs": [],
      "name": "renounceOwnership",
      "outputs": [],
      "stateMutability": "nonpayable",
      "type": "function"
    },
    {
      "inputs": [
        {
          "internalType": "address",
          "name": "newOwner",
          "type": "address"
        }
      ],
      "name": "transferOwnership",
      "outputs": [],
      "stateMutability": "nonpayable",
      "type": "function"
    },
    {
      "inputs": [],
      "name": "usdEntryFee",
      "outputs": [
        {
          "internalType": "uint256",
          "name": "",
          "type": "uint256"
        }
      ],
      "stateMutability": "view",
      "type": "function"
    },
    {
      "inputs": [],
      "name": "enter",
      "outputs": [],
      "stateMutability": "payable",
      "type": "function"
    },
    {
      "inputs": [],
      "name": "getEntranceFee",
      "outputs": [
        {
          "internalType": "uint256",
          "name": "",
          "type": "uint256"
        }
      ],
      "stateMutability": "view",
      "type": "function"
    },
    {
      "inputs": [],
      "name": "startLottery",
      "outputs": [],
      "stateMutability": "nonpayable",
      "type": "function"
    },
    {
      "inputs": [],
      "name": "endLottery",
      "outputs": [],
      "stateMutability": "nonpayable",
      "type": "function"
    }
  ],
  "bytecode": "0x60c060405234801561001057600080fd5b506040516116c33803806116c3833981810160405260a081101561003357600080fd5b81019080805190602001909291908051906020019092919080519060200190929190805190602001909291908051906020019092919050505083838173ffffffffffffffffffffffffffffffffffffffff1660a08173ffffffffffffffffffffffffffffffffffffffff1660601b815250508073ffffffffffffffffffffffffffffffffffffffff1660808173ffffffffffffffffffffffffffffffffffffffff1660601b81525050505060006100ee61021260201b60201c565b905080600160006101000a81548173ffffffffffffffffffffffffffffffffffffffff021916908373ffffffffffffffffffffffffffffffffffffffff1602179055508073ffffffffffffffffffffffffffffffffffffffff16600073ffffffffffffffffffffffffffffffffffffffff167f8be0079c531659141344cd1fd0a4f28419497f9722a3daafe3b4186f6b6457e060405160405180910390a350603260038190555084600460006101000a81548173ffffffffffffffffffffffffffffffffffffffff021916908373ffffffffffffffffffffffffffffffffffffffff1602179055506001600460146101000a81548160ff021916908360028111156101f557fe5b02179055508160058190555080600681905550505050505061021a565b600033905090565b60805160601c60a05160601c61147b6102486000398061093f5280610e0b525080610dcf525061147b6000f3fe6080604052600436106100e85760003560e01c8063814479991161008a578063ddca3f4311610059578063ddca3f43146102db578063e97dcb6214610306578063f2fde38b14610310578063f71d96cb14610361576100e8565b806381447999146101f457806388ab139a1461022a5780638da5cb5b1461025557806394985ddd14610296576100e8565b806336013189116100c657806336013189146101465780633cf380a81461017157806369ebe78e146101b2578063715018a6146101dd576100e8565b806309bc33a7146100ed5780631593a8c714610118578063160344e21461012f575b600080fd5b3480156100f957600080fd5b506101026103c6565b6040518082815260200191505060405180910390f35b34801561012457600080fd5b5061012d6104c9565b005b34801561013b57600080fd5b506101446105e8565b005b34801561015257600080fd5b5061015b610758565b6040518082815260200191505060405180910390f35b34801561017d57600080fd5b5061018661075e565b604051808273ffffffffffffffffffffffffffffffffffffffff16815260200191505060405180910390f35b3480156101be57600080fd5b506101c7610784565b6040518082815260200191505060405180910390f35b3480156101e957600080fd5b506101f261078a565b005b34801561020057600080fd5b506102096108fa565b6040518082600281111561021957fe5b815260200191505060405180910390f35b34801561023657600080fd5b5061023f61090d565b6040518082815260200191505060405180910390f35b34801561026157600080fd5b5061026a610913565b604051808273ffffffffffffffffffffffffffffffffffffffff16815260200191505060405180910390f35b3480156102a257600080fd5b506102d9600480360360408110156102b957600080fd5b81019080803590602001909291908035906020019092919050505061093d565b005b3480156102e757600080fd5b506102f0610a0c565b6040518082815260200191505060405180910390f35b61030e610a12565b005b34801561031c57600080fd5b5061035f6004803603602081101561033357600080fd5b81019080803573ffffffffffffffffffffffffffffffffffffffff169060200190929190505050610b8f565b005b34801561036d57600080fd5b5061039a6004803603602081101561038457600080fd5b8101908080359060200190929190505050610d84565b604051808273ffffffffffffffffffffffffffffffffffffffff16815260200191505060405180910390f35b600080600460009054906101000a900473ffffffffffffffffffffffffffffffffffffffff1673ffffffffffffffffffffffffffffffffffffffff1663feaf968c6040518163ffffffff1660e01b815260040160a06040518083038186803b15801561043157600080fd5b505afa158015610445573d6000803e3d6000fd5b505050506040513d60a081101561045b57600080fd5b81019080805190602001909291908051906020019092919080519060200190929190805190602001909291908051906020019092919050505050505091505060006402540be40082029050600081670de0b6b3a764000060035402816104bd57fe5b04905080935050505090565b6104d1610dc3565b73ffffffffffffffffffffffffffffffffffffffff166104ef610913565b73ffffffffffffffffffffffffffffffffffffffff1614610578576040517f08c379a00000000000000000000000000000000000000000000000000000000081526004018080602001828103825260208152602001807f4f776e61626c653a2063616c6c6572206973206e6f7420746865206f776e657281525060200191505060405180910390fd5b6002600460146101000a81548160ff0219169083600281111561059757fe5b021790555060006105ac600654600554610dcb565b90507fe7e9d173875e49599c9dc06ea20fd1d8878525700b2711462f8379cccdc637eb816040518082815260200191505060405180910390a150565b6105f0610dc3565b73ffffffffffffffffffffffffffffffffffffffff1661060e610913565b73ffffffffffffffffffffffffffffffffffffffff1614610697576040517f08c379a00000000000000000000000000000000000000000000000000000000081526004018080602001828103825260208152602001807f4f776e61626c653a2063616c6c6572206973206e6f7420746865206f776e657281525060200191505060405180910390fd5b600160028111156106a457fe5b600460149054906101000a900460ff1660028111156106bf57fe5b14610732576040517f08c379a000000000000000000000000000000000000000000000000000000000815260040180806020018281038252601b8152602001807f4c6f74746572792068617320616c72656164792073746172746564000000000081525060200191505060405180910390fd5b6000600460146101000a81548160ff0219169083600281111561075157fe5b0217905550565b60085481565b600760009054906101000a900473ffffffffffffffffffffffffffffffffffffffff1681565b60065481565b610792610dc3565b73ffffffffffffffffffffffffffffffffffffffff166107b0610913565b73ffffffffffffffffffffffffffffffffffffffff1614610839576040517f08c379a00000000000000000000000000000000000000000000000000000000081526004018080602001828103825260208152602001807f4f776e61626c653a2063616c6c6572206973206e6f7420746865206f776e657281525060200191505060405180910390fd5b600073ffffffffffffffffffffffffffffffffffffffff16600160009054906101000a900473ffffffffffffffffffffffffffffffffffffffff1673ffffffffffffffffffffffffffffffffffffffff167f8be0079c531659141344cd1fd0a4f28419497f9722a3daafe3b4186f6b6457e060405160405180910390a36000600160006101000a81548173ffffffffffffffffffffffffffffffffffffffff021916908373ffffffffffffffffffffffffffffffffffffffff160217905550565b600460149054906101000a900460ff1681565b60035481565b6000600160009054906101000a900473ffffffffffffffffffffffffffffffffffffffff16905090565b7f000000000000000000000000000000000000000000000000000000000000000073ffffffffffffffffffffffffffffffffffffffff163373ffffffffffffffffffffffffffffffffffffffff16146109fe576040517f08c379a000000000000000000000000000000000000000000000000000000000815260040180806020018281038252601f8152602001807f4f6e6c7920565246436f6f7264696e61746f722063616e2066756c66696c6c0081525060200191505060405180910390fd5b610a088282610fc1565b5050565b60055481565b60006002811115610a1f57fe5b600460149054906101000a900460ff166002811115610a3a57fe5b14610aad576040517f08c379a00000000000000000000000000000000000000000000000000000000081526004018080602001828103825260158152602001807f6c6f7474657279206973206e6f74206f70656e6564000000000000000000000081525060200191505060405180910390fd5b610ab56103c6565b341015610b2a576040517f08c379a00000000000000000000000000000000000000000000000000000000081526004018080602001828103825260168152602001807f4e6f7420656e6f7567682045544820746f206a6f696e0000000000000000000081525060200191505060405180910390fd5b6002339080600181540180825580915050600190039060005260206000200160009091909190916101000a81548173ffffffffffffffffffffffffffffffffffffffff021916908373ffffffffffffffffffffffffffffffffffffffff160217905550565b610b97610dc3565b73ffffffffffffffffffffffffffffffffffffffff16610bb5610913565b73ffffffffffffffffffffffffffffffffffffffff1614610c3e576040517f08c379a00000000000000000000000000000000000000000000000000000000081526004018080602001828103825260208152602001807f4f776e61626c653a2063616c6c6572206973206e6f7420746865206f776e657281525060200191505060405180910390fd5b600073ffffffffffffffffffffffffffffffffffffffff168173ffffffffffffffffffffffffffffffffffffffff161415610cc4576040517f08c379a00000000000000000000000000000000000000000000000000000000081526004018080602001828103825260268152602001806114206026913960400191505060405180910390fd5b8073ffffffffffffffffffffffffffffffffffffffff16600160009054906101000a900473ffffffffffffffffffffffffffffffffffffffff1673ffffffffffffffffffffffffffffffffffffffff167f8be0079c531659141344cd1fd0a4f28419497f9722a3daafe3b4186f6b6457e060405160405180910390a380600160006101000a81548173ffffffffffffffffffffffffffffffffffffffff021916908373ffffffffffffffffffffffffffffffffffffffff16021790555050565b60028181548110610d9457600080fd5b906000526020600020016000915054906101000a900473ffffffffffffffffffffffffffffffffffffffff1681565b600033905090565b60007f000000000000000000000000000000000000000000000000000000000000000073ffffffffffffffffffffffffffffffffffffffff16634000aea07f00000000000000000000000000000000000000000000000000000000000000008486600060405160200180838152602001828152602001925050506040516020818303038152906040526040518463ffffffff1660e01b8152600401808473ffffffffffffffffffffffffffffffffffffffff16815260200183815260200180602001828103825283818151815260200191508051906020019080838360005b83811015610ec5578082015181840152602081019050610eaa565b50505050905090810190601f168015610ef25780820380516001836020036101000a031916815260200191505b50945050505050602060405180830381600087803b158015610f1357600080fd5b505af1158015610f27573d6000803e3d6000fd5b505050506040513d6020811015610f3d57600080fd5b8101908080519060200190929190505050506000610f708460003060008089815260200190815260200160002054611253565b9050610f986001600080878152602001908152602001600020546112b790919063ffffffff16565b60008086815260200190815260200160002081905550610fb8848261133f565b91505092915050565b600280811115610fcd57fe5b600460149054906101000a900460ff166002811115610fe857fe5b1461105b576040517f08c379a00000000000000000000000000000000000000000000000000000000081526004018080602001828103825260158152602001807f596f75206172656e27742074686572652079657421000000000000000000000081525060200191505060405180910390fd5b600081116110d1576040517f08c379a00000000000000000000000000000000000000000000000000000000081526004018080602001828103825260108152602001807f72616e646f6d2d6e6f742d666f756e640000000000000000000000000000000081525060200191505060405180910390fd5b600060028054905082816110e157fe5b069050600281815481106110f157fe5b9060005260206000200160009054906101000a900473ffffffffffffffffffffffffffffffffffffffff16600760006101000a81548173ffffffffffffffffffffffffffffffffffffffff021916908373ffffffffffffffffffffffffffffffffffffffff160217905550600760009054906101000a900473ffffffffffffffffffffffffffffffffffffffff1673ffffffffffffffffffffffffffffffffffffffff166108fc479081150290604051600060405180830381858888f193505050501580156111c4573d6000803e3d6000fd5b50600067ffffffffffffffff811180156111dd57600080fd5b5060405190808252806020026020018201604052801561120c5781602001602082028036833780820191505090505b5060029080519060200190611222929190611378565b506001600460146101000a81548160ff0219169083600281111561124257fe5b021790555081600881905550505050565b600084848484604051602001808581526020018481526020018373ffffffffffffffffffffffffffffffffffffffff1681526020018281526020019450505050506040516020818303038152906040528051906020012060001c9050949350505050565b600080828401905083811015611335576040517f08c379a000000000000000000000000000000000000000000000000000000000815260040180806020018281038252601b8152602001807f536166654d6174683a206164646974696f6e206f766572666c6f77000000000081525060200191505060405180910390fd5b8091505092915050565b60008282604051602001808381526020018281526020019250505060405160208183030381529060405280519060200120905092915050565b8280548282559060005260206000209081019282156113f1579160200282015b828111156113f05782518260006101000a81548173ffffffffffffffffffffffffffffffffffffffff021916908373ffffffffffffffffffffffffffffffffffffffff16021790555091602001919060010190611398565b5b5090506113fe9190611402565b5090565b5b8082111561141b576000816000905550600101611403565b509056fe4f776e61626c653a206e6577206f776e657220697320746865207a65726f2061646472657373a26469706673582212200e3e49f04051f285ddc10e41287e393980a6f82a9f54b44f84f61ef7a184c1f164736f6c63430007060033",
  "immutableReferences": {
    "77": [
      {
        "length": 32,
        "start": 3535
      }
    ],
    "79": [
      {
        "length": 32,
        "start": 2367
      },
      {
        "length": 32,
        "start": 3595
      }
    ]
  },
  "source": "// SPDX-License-Identifier: MIT\r\n\r\npragma solidity ^0.7.0;\r\nimport \"@chainlink/contracts/src/v0.7/interfaces/AggregatorV3Interface.sol\";\r\nimport \"@openzeppelin/contracts/access/Ownable.sol\";\r\nimport \"@chainlink/contracts/src/v0.7/VRFConsumerBase.sol\";\r\n\r\ncontract Lottery is VRFConsumerBase, Ownable {\r\n    address payable[] public players;\r\n    uint256 public usdEntryFee;\r\n    AggregatorV3Interface internal ethUsdPriceFeed;\r\n    enum LOTTERY_STATE {\r\n        OPEN, //0\r\n        CLOSED, //1\r\n        CALCULATING_WINNER //2\r\n    }\r\n    LOTTERY_STATE public lottery_state;\r\n    uint256 public fee;\r\n    bytes32 public keyhash;\r\n    address payable public reccentWinners;\r\n    uint256 public randomness;\r\n    event RequestRandomness(bytes32 requestId);\r\n\r\n    constructor(\r\n        address _priceFeedAddress,\r\n        address _vrfCoordinator,\r\n        address _link,\r\n        uint256 _fee,\r\n        bytes32 _keyhash\r\n    ) public VRFConsumerBase(_vrfCoordinator, _link) {\r\n        usdEntryFee = 50;\r\n        ethUsdPriceFeed = AggregatorV3Interface(_priceFeedAddress);\r\n        lottery_state = LOTTERY_STATE.CLOSED;\r\n        fee = _fee;\r\n        keyhash = _keyhash;\r\n    }\r\n\r\n    function enter() public payable {\r\n        // 50$ minimum\r\n        require(lottery_state == LOTTERY_STATE.OPEN, \"lottery is not opened\");\r\n        require(msg.value >= getEntranceFee(), \"Not enough ETH to join\");\r\n        players.push(msg.sender);\r\n    }\r\n\r\n    function getEntranceFee() public view returns (uint256) {\r\n        // minimum 50 USD\r\n        (, int256 answer, , , ) = ethUsdPriceFeed.latestRoundData();\r\n        uint256 adjustedPrice = uint256(answer) * 10**10; //18 decimal\r\n        // $50, 1ETH / 4000$\r\n        // 50/2000\r\n        // 50*100000/2000\r\n        uint256 costToEnter = (usdEntryFee * 10**18) / adjustedPrice;\r\n        return costToEnter;\r\n    }\r\n\r\n    function startLottery() public onlyOwner {\r\n        require(\r\n            lottery_state == LOTTERY_STATE.CLOSED,\r\n            \"Lottery has already started\"\r\n        );\r\n        lottery_state = LOTTERY_STATE.OPEN;\r\n    }\r\n\r\n    function endLottery() public onlyOwner {\r\n        lottery_state = LOTTERY_STATE.CALCULATING_WINNER;\r\n        bytes32 requestId = requestRandomness(keyhash, fee);\r\n        emit RequestRandomness(requestId);\r\n    }\r\n\r\n    function fulfillRandomness(bytes32 _requestId, uint256 _randomness)\r\n        internal\r\n        override\r\n    {\r\n        require(\r\n            lottery_state == LOTTERY_STATE.CALCULATING_WINNER,\r\n            \"You aren't there yet!\"\r\n        );\r\n        require(_randomness > 0, \"random-not-found\");\r\n        uint256 indexOfWinner = _randomness % players.length;\r\n        reccentWinners = players[indexOfWinner];\r\n        reccentWinners.transfer(address(this).balance);\r\n        // Reset\r\n        players = new address payable[](0);\r\n        lottery_state = LOTTERY_STATE.CLOSED;\r\n        randomness = _randomness;\r\n    }\r\n}\r\n",
  "sourcePath": "C:\\Users\\Acer\\OneDrive\\Desktop\\fundMe\\contracts\\Lottery.sol",
  "compiler": {
    "name": "solc",
    "version": "0.7.6+commit.7338295f.Emscripten.clang"
  },
  "schemaVersion": "3.4.5",
  "updatedAt": "2022-02-26T13:22:55.321Z",
  "devdoc": {
    "kind": "dev",
    "methods": {
      "owner()": {
        "details": "Returns the address of the current owner."
      },
      "renounceOwnership()": {
        "details": "Leaves the contract without owner. It will not be possible to call `onlyOwner` functions anymore. Can only be called by the current owner. NOTE: Renouncing ownership will leave the contract without an owner, thereby removing any functionality that is only available to the owner."
      },
      "transferOwnership(address)": {
        "details": "Transfers ownership of the contract to a new account (`newOwner`). Can only be called by the current owner."
      }
    },
    "version": 1
  },
  "userdoc": {
    "kind": "user",
    "methods": {},
    "version": 1
  }
}