{
  "contractName": "MockV3Aggregator",
  "abi": [
    {
      "inputs": [
        {
          "internalType": "uint8",
          "name": "_decimals",
          "type": "uint8"
        },
        {
          "internalType": "int256",
          "name": "_initialAnswer",
          "type": "int256"
        }
      ],
      "stateMutability": "nonpayable",
      "type": "constructor"
    },
    {
      "anonymous": false,
      "inputs": [
        {
          "indexed": true,
          "internalType": "int256",
          "name": "current",
          "type": "int256"
        },
        {
          "indexed": true,
          "internalType": "uint256",
          "name": "roundId",
          "type": "uint256"
        },
        {
          "indexed": false,
          "internalType": "uint256",
          "name": "updatedAt",
          "type": "uint256"
        }
      ],
      "name": "AnswerUpdated",
      "type": "event"
    },
    {
      "anonymous": false,
      "inputs": [
        {
          "indexed": true,
          "internalType": "uint256",
          "name": "roundId",
          "type": "uint256"
        },
        {
          "indexed": true,
          "internalType": "address",
          "name": "startedBy",
          "type": "address"
        },
        {
          "indexed": false,
          "internalType": "uint256",
          "name": "startedAt",
          "type": "uint256"
        }
      ],
      "name": "NewRound",
      "type": "event"
    },
    {
      "inputs": [],
      "name": "decimals",
      "outputs": [
        {
          "internalType": "uint8",
          "name": "",
          "type": "uint8"
        }
      ],
      "stateMutability": "view",
      "type": "function"
    },
    {
      "inputs": [
        {
          "internalType": "uint256",
          "name": "",
          "type": "uint256"
        }
      ],
      "name": "getAnswer",
      "outputs": [
        {
          "internalType": "int256",
          "name": "",
          "type": "int256"
        }
      ],
      "stateMutability": "view",
      "type": "function"
    },
    {
      "inputs": [
        {
          "internalType": "uint256",
          "name": "",
          "type": "uint256"
        }
      ],
      "name": "getTimestamp",
      "outputs": [
        {
          "internalType": "uint256",
          "name": "",
          "type": "uint256"
        }
      ],
      "stateMutability": "view",
      "type": "function"
    },
    {
      "inputs": [],
      "name": "latestAnswer",
      "outputs": [
        {
          "internalType": "int256",
          "name": "",
          "type": "int256"
        }
      ],
      "stateMutability": "view",
      "type": "function"
    },
    {
      "inputs": [],
      "name": "latestRound",
      "outputs": [
        {
          "internalType": "uint256",
          "name": "",
          "type": "uint256"
        }
      ],
      "stateMutability": "view",
      "type": "function"
    },
    {
      "inputs": [],
      "name": "latestTimestamp",
      "outputs": [
        {
          "internalType": "uint256",
          "name": "",
          "type": "uint256"
        }
      ],
      "stateMutability": "view",
      "type": "function"
    },
    {
      "inputs": [],
      "name": "version",
      "outputs": [
        {
          "internalType": "uint256",
          "name": "",
          "type": "uint256"
        }
      ],
      "stateMutability": "view",
      "type": "function"
    },
    {
      "inputs": [
        {
          "internalType": "int256",
          "name": "_answer",
          "type": "int256"
        }
      ],
      "name": "updateAnswer",
      "outputs": [],
      "stateMutability": "nonpayable",
      "type": "function"
    },
    {
      "inputs": [
        {
          "internalType": "uint80",
          "name": "_roundId",
          "type": "uint80"
        },
        {
          "internalType": "int256",
          "name": "_answer",
          "type": "int256"
        },
        {
          "internalType": "uint256",
          "name": "_timestamp",
          "type": "uint256"
        },
        {
          "internalType": "uint256",
          "name": "_startedAt",
          "type": "uint256"
        }
      ],
      "name": "updateRoundData",
      "outputs": [],
      "stateMutability": "nonpayable",
      "type": "function"
    },
    {
      "inputs": [
        {
          "internalType": "uint80",
          "name": "_roundId",
          "type": "uint80"
        }
      ],
      "name": "getRoundData",
      "outputs": [
        {
          "internalType": "uint80",
          "name": "roundId",
          "type": "uint80"
        },
        {
          "internalType": "int256",
          "name": "answer",
          "type": "int256"
        },
        {
          "internalType": "uint256",
          "name": "startedAt",
          "type": "uint256"
        },
        {
          "internalType": "uint256",
          "name": "updatedAt",
          "type": "uint256"
        },
        {
          "internalType": "uint80",
          "name": "answeredInRound",
          "type": "uint80"
        }
      ],
      "stateMutability": "view",
      "type": "function"
    },
    {
      "inputs": [],
      "name": "latestRoundData",
      "outputs": [
        {
          "internalType": "uint80",
          "name": "roundId",
          "type": "uint80"
        },
        {
          "internalType": "int256",
          "name": "answer",
          "type": "int256"
        },
        {
          "internalType": "uint256",
          "name": "startedAt",
          "type": "uint256"
        },
        {
          "internalType": "uint256",
          "name": "updatedAt",
          "type": "uint256"
        },
        {
          "internalType": "uint80",
          "name": "answeredInRound",
          "type": "uint80"
        }
      ],
      "stateMutability": "view",
      "type": "function"
    },
    {
      "inputs": [],
      "name": "description",
      "outputs": [
        {
          "internalType": "string",
          "name": "",
          "type": "string"
        }
      ],
      "stateMutability": "pure",
      "type": "function"
    }
  ],
  "bytecode": "0x608060405234801561001057600080fd5b506040516107403803806107408339818101604052604081101561003357600080fd5b810190808051906020019092919080519060200190929190505050816000806101000a81548160ff021916908360ff1602179055506100778161007e60201b60201c565b50506100ef565b806001819055504260028190555060036000815480929190600101919050555080600460006003548152602001908152602001600020819055504260056000600354815260200190815260200160002081905550426006600060035481526020019081526020016000208190555050565b610642806100fe6000396000f3fe608060405234801561001057600080fd5b50600436106100b45760003560e01c80638205bf6a116100715780638205bf6a1461020f5780639a6fc8f51461022d578063a87a20ce146102af578063b5ab58dc146102dd578063b633620c1461031f578063feaf968c14610361576100b4565b8063313ce567146100b95780634aa2011f146100da57806350d25bcd1461013257806354fd4d5014610150578063668a0f021461016e5780637284e4161461018c575b600080fd5b6100c16103b3565b604051808260ff16815260200191505060405180910390f35b610130600480360360808110156100f057600080fd5b81019080803569ffffffffffffffffffff1690602001909291908035906020019092919080359060200190929190803590602001909291905050506103c4565b005b61013a610439565b6040518082815260200191505060405180910390f35b61015861043f565b6040518082815260200191505060405180910390f35b610176610444565b6040518082815260200191505060405180910390f35b61019461044a565b6040518080602001828103825283818151815260200191508051906020019080838360005b838110156101d45780820151818401526020810190506101b9565b50505050905090810190601f1680156102015780820380516001836020036101000a031916815260200191505b509250505060405180910390f35b610217610487565b6040518082815260200191505060405180910390f35b6102656004803603602081101561024357600080fd5b81019080803569ffffffffffffffffffff16906020019092919050505061048d565b604051808669ffffffffffffffffffff1681526020018581526020018481526020018381526020018269ffffffffffffffffffff1681526020019550505050505060405180910390f35b6102db600480360360208110156102c557600080fd5b810190808035906020019092919050505061050a565b005b610309600480360360208110156102f357600080fd5b810190808035906020019092919050505061057b565b6040518082815260200191505060405180910390f35b61034b6004803603602081101561033557600080fd5b8101908080359060200190929190505050610593565b6040518082815260200191505060405180910390f35b6103696105ab565b604051808669ffffffffffffffffffff1681526020018581526020018481526020018381526020018269ffffffffffffffffffff1681526020019550505050505060405180910390f35b60008054906101000a900460ff1681565b8369ffffffffffffffffffff16600381905550826001819055508160028190555082600460006003548152602001908152602001600020819055508160056000600354815260200190815260200160002081905550806006600060035481526020019081526020016000208190555050505050565b60015481565b600081565b60035481565b60606040518060400160405280601f81526020017f76302e362f74657374732f4d6f636b563341676772656761746f722e736f6c00815250905090565b60025481565b600080600080600085600460008869ffffffffffffffffffff16815260200190815260200160002054600660008969ffffffffffffffffffff16815260200190815260200160002054600560008a69ffffffffffffffffffff16815260200190815260200160002054899450945094509450945091939590929450565b806001819055504260028190555060036000815480929190600101919050555080600460006003548152602001908152602001600020819055504260056000600354815260200190815260200160002081905550426006600060035481526020019081526020016000208190555050565b60046020528060005260406000206000915090505481565b60056020528060005260406000206000915090505481565b600080600080600060035460046000600354815260200190815260200160002054600660006003548152602001908152602001600020546005600060035481526020019081526020016000205460035494509450945094509450909192939456fea264697066735822122004df1dfab3c4e048d2eee89868b63562ac84e264023ddb6a3a0cd4cdbd8d284864736f6c63430007060033",
  "immutableReferences": {},
  "source": "// SPDX-License-Identifier: MIT\r\npragma solidity ^0.7.0;\r\n\r\nimport \"@chainlink/contracts/src/v0.7/interfaces/AggregatorV2V3Interface.sol\";\r\n\r\n/**\r\n * @title MockV3Aggregator\r\n * @notice Based on the FluxAggregator contract\r\n * @notice Use this contract when you need to test\r\n * other contract's ability to read data from an\r\n * aggregator contract, but how the aggregator got\r\n * its answer is unimportant\r\n */\r\ncontract MockV3Aggregator is AggregatorV2V3Interface {\r\n    uint256 public constant override version = 0;\r\n\r\n    uint8 public override decimals;\r\n    int256 public override latestAnswer;\r\n    uint256 public override latestTimestamp;\r\n    uint256 public override latestRound;\r\n\r\n    mapping(uint256 => int256) public override getAnswer;\r\n    mapping(uint256 => uint256) public override getTimestamp;\r\n    mapping(uint256 => uint256) private getStartedAt;\r\n\r\n    constructor(uint8 _decimals, int256 _initialAnswer) {\r\n        decimals = _decimals;\r\n        updateAnswer(_initialAnswer);\r\n    }\r\n\r\n    function updateAnswer(int256 _answer) public {\r\n        latestAnswer = _answer;\r\n        latestTimestamp = block.timestamp;\r\n        latestRound++;\r\n        getAnswer[latestRound] = _answer;\r\n        getTimestamp[latestRound] = block.timestamp;\r\n        getStartedAt[latestRound] = block.timestamp;\r\n    }\r\n\r\n    function updateRoundData(\r\n        uint80 _roundId,\r\n        int256 _answer,\r\n        uint256 _timestamp,\r\n        uint256 _startedAt\r\n    ) public {\r\n        latestRound = _roundId;\r\n        latestAnswer = _answer;\r\n        latestTimestamp = _timestamp;\r\n        getAnswer[latestRound] = _answer;\r\n        getTimestamp[latestRound] = _timestamp;\r\n        getStartedAt[latestRound] = _startedAt;\r\n    }\r\n\r\n    function getRoundData(uint80 _roundId)\r\n        external\r\n        view\r\n        override\r\n        returns (\r\n            uint80 roundId,\r\n            int256 answer,\r\n            uint256 startedAt,\r\n            uint256 updatedAt,\r\n            uint80 answeredInRound\r\n        )\r\n    {\r\n        return (\r\n            _roundId,\r\n            getAnswer[_roundId],\r\n            getStartedAt[_roundId],\r\n            getTimestamp[_roundId],\r\n            _roundId\r\n        );\r\n    }\r\n\r\n    function latestRoundData()\r\n        external\r\n        view\r\n        override\r\n        returns (\r\n            uint80 roundId,\r\n            int256 answer,\r\n            uint256 startedAt,\r\n            uint256 updatedAt,\r\n            uint80 answeredInRound\r\n        )\r\n    {\r\n        return (\r\n            uint80(latestRound),\r\n            getAnswer[latestRound],\r\n            getStartedAt[latestRound],\r\n            getTimestamp[latestRound],\r\n            uint80(latestRound)\r\n        );\r\n    }\r\n\r\n    function description() external pure override returns (string memory) {\r\n        return \"v0.6/tests/MockV3Aggregator.sol\";\r\n    }\r\n}\r\n\r\n// MockOracle\r\n// Function signatures, event signatures, log topics\r\n",
  "sourcePath": "C:\\Users\\Acer\\OneDrive\\Desktop\\fundMe\\contracts\\test\\MockV3Aggregator.sol",
  "compiler": {
    "name": "solc",
    "version": "0.7.6+commit.7338295f.Emscripten.clang"
  },
  "schemaVersion": "3.4.5",
  "updatedAt": "2022-02-28T09:25:28.690Z",
  "devdoc": {
    "kind": "dev",
    "methods": {},
    "title": "MockV3Aggregator",
    "version": 1
  },
  "userdoc": {
    "kind": "user",
    "methods": {},
    "notice": "Based on the FluxAggregator contractUse this contract when you need to test other contract's ability to read data from an aggregator contract, but how the aggregator got its answer is unimportant",
    "version": 1
  }
}