{
  "contractName": "SimpleStorage",
  "abi": [
    {
      "inputs": [
        {
          "internalType": "uint256",
          "name": "",
          "type": "uint256"
        }
      ],
      "name": "people",
      "outputs": [
        {
          "internalType": "uint256",
          "name": "favouriteUINT",
          "type": "uint256"
        },
        {
          "internalType": "string",
          "name": "name",
          "type": "string"
        }
      ],
      "stateMutability": "view",
      "type": "function"
    },
    {
      "inputs": [
        {
          "internalType": "string",
          "name": "",
          "type": "string"
        }
      ],
      "name": "stringToUint256",
      "outputs": [
        {
          "internalType": "uint256",
          "name": "",
          "type": "uint256"
        }
      ],
      "stateMutability": "view",
      "type": "function"
    },
    {
      "inputs": [
        {
          "internalType": "uint256",
          "name": "_favouriteNumber",
          "type": "uint256"
        }
      ],
      "name": "store",
      "outputs": [],
      "stateMutability": "nonpayable",
      "type": "function"
    },
    {
      "inputs": [],
      "name": "retrieve",
      "outputs": [
        {
          "internalType": "uint256",
          "name": "",
          "type": "uint256"
        }
      ],
      "stateMutability": "view",
      "type": "function"
    },
    {
      "inputs": [
        {
          "internalType": "uint256",
          "name": "_favouriteUINT",
          "type": "uint256"
        },
        {
          "internalType": "string",
          "name": "_name",
          "type": "string"
        }
      ],
      "name": "addPerson",
      "outputs": [],
      "stateMutability": "nonpayable",
      "type": "function"
    }
  ],
  "bytecode": "0x608060405234801561001057600080fd5b506105b3806100206000396000f3fe608060405234801561001057600080fd5b50600436106100575760003560e01c80632e64cec11461005c5780636057361d1461007a5780639e7a13ad146100a8578063ac5d372314610156578063bc832d4e14610225575b600080fd5b6100646102ea565b6040518082815260200191505060405180910390f35b6100a66004803603602081101561009057600080fd5b81019080803590602001909291905050506102f3565b005b6100d4600480360360208110156100be57600080fd5b81019080803590602001909291905050506102fd565b6040518083815260200180602001828103825283818151815260200191508051906020019080838360005b8381101561011a5780820151818401526020810190506100ff565b50505050905090810190601f1680156101475780820380516001836020036101000a031916815260200191505b50935050505060405180910390f35b61020f6004803603602081101561016c57600080fd5b810190808035906020019064010000000081111561018957600080fd5b82018360208201111561019b57600080fd5b803590602001918460018302840111640100000000831117156101bd57600080fd5b91908080601f016020809104026020016040519081016040528093929190818152602001838380828437600081840152601f19601f8201169050808301925050505050505091929192905050506103c9565b6040518082815260200191505060405180910390f35b6102e86004803603604081101561023b57600080fd5b81019080803590602001909291908035906020019064010000000081111561026257600080fd5b82018360208201111561027457600080fd5b8035906020019184600183028401116401000000008311171561029657600080fd5b91908080601f016020809104026020016040519081016040528093929190818152602001838380828437600081840152601f19601f8201169050808301925050505050505091929192905050506103f7565b005b60008054905090565b8060008190555050565b6001818154811061030d57600080fd5b9060005260206000209060020201600091509050806000015490806001018054600181600116156101000203166002900480601f0160208091040260200160405190810160405280929190818152602001828054600181600116156101000203166002900480156103bf5780601f10610394576101008083540402835291602001916103bf565b820191906000526020600020905b8154815290600101906020018083116103a257829003601f168201915b5050505050905082565b6002818051602081018201805184825260208301602085012081835280955050505050506000915090505481565b6001604051806040016040528084815260200183815250908060018154018082558091505060019003906000526020600020906002020160009091909190915060008201518160000155602082015181600101908051906020019061045d9291906104d2565b505050816002826040518082805190602001908083835b602083106104975780518252602082019150602081019050602083039250610474565b6001836020036101000a0380198251168184511680821785525050505050509050019150509081526020016040518091039020819055505050565b828054600181600116156101000203166002900490600052602060002090601f016020900481019282610508576000855561054f565b82601f1061052157805160ff191683800117855561054f565b8280016001018555821561054f579182015b8281111561054e578251825591602001919060010190610533565b5b50905061055c9190610560565b5090565b5b80821115610579576000816000905550600101610561565b509056fea264697066735822122049f2d0da2b92344abd2490d37d29e9b710fd956b3d7027fedcd832f8c062135464736f6c63430007060033",
  "immutableReferences": {},
  "source": "// SPDX-License-Identifier: MIT\r\npragma solidity ^0.7.0;\r\n\r\ncontract SimpleStorage {\r\n    // this will get initialize to zero\r\n    uint256 favouriteUINT;\r\n\r\n    struct People {\r\n        uint256 favouriteUINT;\r\n        string name;\r\n    }\r\n\r\n    People[] public people;\r\n    mapping(string => uint256) public stringToUint256;\r\n\r\n    function store(uint256 _favouriteNumber) public {\r\n        favouriteUINT = _favouriteNumber;\r\n    }\r\n\r\n    function retrieve() public view returns (uint256) {\r\n        return favouriteUINT;\r\n    }\r\n\r\n    function addPerson(uint256 _favouriteUINT, string memory _name) public {\r\n        people.push(People(_favouriteUINT, _name));\r\n        stringToUint256[_name] = _favouriteUINT;\r\n    }\r\n}\r\n",
  "sourcePath": "C:\\Users\\Acer\\OneDrive\\Desktop\\fundMe\\contracts\\SimpleStorage.sol",
  "compiler": {
    "name": "solc",
    "version": "0.7.6+commit.7338295f.Emscripten.clang"
  },
  "schemaVersion": "3.4.5",
  "updatedAt": "2022-02-28T09:25:28.687Z",
  "devdoc": {
    "kind": "dev",
    "methods": {},
    "version": 1
  },
  "userdoc": {
    "kind": "user",
    "methods": {},
    "version": 1
  }
}