{
  "contractName": "VRFCoordinatorMock",
  "abi": [
    {
      "inputs": [
        {
          "internalType": "address",
          "name": "linkAddress",
          "type": "address"
        }
      ],
      "stateMutability": "nonpayable",
      "type": "constructor"
    },
    {
      "anonymous": false,
      "inputs": [
        {
          "indexed": true,
          "internalType": "address",
          "name": "sender",
          "type": "address"
        },
        {
          "indexed": true,
          "internalType": "bytes32",
          "name": "keyHash",
          "type": "bytes32"
        },
        {
          "indexed": true,
          "internalType": "uint256",
          "name": "seed",
          "type": "uint256"
        }
      ],
      "name": "RandomnessRequest",
      "type": "event"
    },
    {
      "inputs": [],
      "name": "LINK",
      "outputs": [
        {
          "internalType": "contract LinkTokenInterface",
          "name": "",
          "type": "address"
        }
      ],
      "stateMutability": "view",
      "type": "function"
    },
    {
      "inputs": [
        {
          "internalType": "address",
          "name": "sender",
          "type": "address"
        },
        {
          "internalType": "uint256",
          "name": "fee",
          "type": "uint256"
        },
        {
          "internalType": "bytes",
          "name": "_data",
          "type": "bytes"
        }
      ],
      "name": "onTokenTransfer",
      "outputs": [],
      "stateMutability": "nonpayable",
      "type": "function"
    },
    {
      "inputs": [
        {
          "internalType": "bytes32",
          "name": "requestId",
          "type": "bytes32"
        },
        {
          "internalType": "uint256",
          "name": "randomness",
          "type": "uint256"
        },
        {
          "internalType": "address",
          "name": "consumerContract",
          "type": "address"
        }
      ],
      "name": "callBackWithRandomness",
      "outputs": [],
      "stateMutability": "nonpayable",
      "type": "function"
    }
  ],
  "bytecode": "0x608060405234801561001057600080fd5b506040516105ab3803806105ab8339818101604052602081101561003357600080fd5b8101908080519060200190929190505050806000806101000a81548173ffffffffffffffffffffffffffffffffffffffff021916908373ffffffffffffffffffffffffffffffffffffffff16021790555050610517806100946000396000f3fe608060405234801561001057600080fd5b50600436106100415760003560e01c80631b6b6d2314610046578063a4c0ed361461007a578063cf55fe971461015f575b600080fd5b61004e6101b7565b604051808273ffffffffffffffffffffffffffffffffffffffff16815260200191505060405180910390f35b61015d6004803603606081101561009057600080fd5b81019080803573ffffffffffffffffffffffffffffffffffffffff16906020019092919080359060200190929190803590602001906401000000008111156100d757600080fd5b8201836020820111156100e957600080fd5b8035906020019184600183028401116401000000008311171561010b57600080fd5b91908080601f016020809104026020016040519081016040528093929190818152602001838380828437600081840152601f19601f8201169050808301925050505050505091929192905050506101db565b005b6101b56004803603606081101561017557600080fd5b810190808035906020019092919080359060200190929190803573ffffffffffffffffffffffffffffffffffffffff16906020019092919050505061031f565b005b60008054906101000a900473ffffffffffffffffffffffffffffffffffffffff1681565b60008054906101000a900473ffffffffffffffffffffffffffffffffffffffff1673ffffffffffffffffffffffffffffffffffffffff163373ffffffffffffffffffffffffffffffffffffffff161461029c576040517f08c379a00000000000000000000000000000000000000000000000000000000081526004018080602001828103825260138152602001807f4d75737420757365204c494e4b20746f6b656e0000000000000000000000000081525060200191505060405180910390fd5b6000808280602001905160408110156102b457600080fd5b8101908080519060200190929190805190602001909291905050509150915080828673ffffffffffffffffffffffffffffffffffffffff167f7a9a0a6960d95b32cded93c30e63e7c2eb9e877230813c172110ea54dc1c915c60405160405180910390a45050505050565b6000806394985ddd60e01b85856040516024018083815260200182815260200192505050604051602081830303815290604052907bffffffffffffffffffffffffffffffffffffffffffffffffffffffff19166020820180517bffffffffffffffffffffffffffffffffffffffffffffffffffffffff838183161783525050505090506000620324b09050805a1015610420576040517f08c379a000000000000000000000000000000000000000000000000000000000815260040180806020018281038252601b8152602001807f6e6f7420656e6f7567682067617320666f7220636f6e73756d6572000000000081525060200191505060405180910390fd5b60008473ffffffffffffffffffffffffffffffffffffffff16836040518082805190602001908083835b6020831061046d578051825260208201915060208101905060208303925061044a565b6001836020036101000a0380198251168184511680821785525050505050509050019150506000604051808303816000865af19150503d80600081146104cf576040519150601f19603f3d011682016040523d82523d6000602084013e6104d4565b606091505b505090505050505050505056fea26469706673582212208e835324a7e1253cacac7a36b43959870520fc7aacd2c84c980e86f5581076c864736f6c63430007060033",
  "immutableReferences": {},
  "source": "// SPDX-License-Identifier: MIT\r\npragma solidity ^0.7.0;\r\n\r\nimport \"@chainlink/contracts/src/v0.7/interfaces/LinkTokenInterface.sol\";\r\nimport \"@chainlink/contracts/src/v0.7/VRFConsumerBase.sol\";\r\n\r\ncontract VRFCoordinatorMock {\r\n    LinkTokenInterface public LINK;\r\n\r\n    event RandomnessRequest(\r\n        address indexed sender,\r\n        bytes32 indexed keyHash,\r\n        uint256 indexed seed\r\n    );\r\n\r\n    constructor(address linkAddress) public {\r\n        LINK = LinkTokenInterface(linkAddress);\r\n    }\r\n\r\n    function onTokenTransfer(\r\n        address sender,\r\n        uint256 fee,\r\n        bytes memory _data\r\n    ) public onlyLINK {\r\n        (bytes32 keyHash, uint256 seed) = abi.decode(_data, (bytes32, uint256));\r\n        emit RandomnessRequest(sender, keyHash, seed);\r\n    }\r\n\r\n    function callBackWithRandomness(\r\n        bytes32 requestId,\r\n        uint256 randomness,\r\n        address consumerContract\r\n    ) public {\r\n        VRFConsumerBase v;\r\n        bytes memory resp = abi.encodeWithSelector(\r\n            v.rawFulfillRandomness.selector,\r\n            requestId,\r\n            randomness\r\n        );\r\n        uint256 b = 206000;\r\n        require(gasleft() >= b, \"not enough gas for consumer\");\r\n        (bool success, ) = consumerContract.call(resp);\r\n    }\r\n\r\n    modifier onlyLINK() {\r\n        require(msg.sender == address(LINK), \"Must use LINK token\");\r\n        _;\r\n    }\r\n}\r\n",
  "sourcePath": "C:\\Users\\Acer\\OneDrive\\Desktop\\fundMe\\contracts\\test\\VRFCoordinatorMock.sol",
  "compiler": {
    "name": "solc",
    "version": "0.7.6+commit.7338295f.Emscripten.clang"
  },
  "schemaVersion": "3.4.5",
  "updatedAt": "2022-02-28T09:25:28.694Z",
  "devdoc": {
    "kind": "dev",
    "methods": {},
    "version": 1
  },
  "userdoc": {
    "kind": "user",
    "methods": {},
    "version": 1
  }
}